:020000040800F2
:1000000000000220C5220008B90A0008BB0A000847
:10001000BD0A0008BF0A0008C10A0008000000006D
:10002000000000000000000000000000C30A0008FB
:10003000C50A000800000000C70A0008C90A000835
:1000400015230008152300081523000815230008B0
:1000500015230008152300081523000815230008A0
:100060001523000815230008152300081523000890
:100070001523000815230008152300081523000880
:1000800015230008152300081523000800000000B0
:100090000000000000000000000000001523000820
:1000A0001523000815230008152300081523000850
:1000B0001523000815230008152300081523000840
:1000C0001523000815230008152300081523000830
:1000D00015230008152300089D06000800000000F5
:1000E0001523000815230008152300080000000050
:1000F00000000000000000000000000015230008C0
:10010000000000001523000815230008152300082F
:1001100000000000000000000000000000000000DF
:1001200015230008152300081523000815230008CF
:10013000152300080000000000000000000000007F
:10014000000000000000000000000000152300086F
:10015000152300081523000815230008152300089F
:10016000152300081523000800000000000000000F
:10017000000000000000000000000000000000007F
:10018000000000001523000800000000000000002F
:080190001523000815230008E7
:1001A00010B5054C237833B9044B13B10448AFF3B1
:1001B00000800123237010BD7000002000000000AB
:1001C0008C2B000808B5034B1BB103490348AFF360
:1001D000008008BD00000000740000208C2B000887
:1001E00053B94AB9002908BF00281CBF4FF0FF319E
:1001F0004FF0FF3000F072B9ADF1080C6DE904CE9C
:1002000000F006F8DDF804E0DDE9022304B07047F1
:100210002DE9F047089E04468846002B4BD18A42C0
:10022000154667D9B2FA82F24AB1C2F1200701FA43
:1002300002F320FA07F7954047EA030894404FEA93
:10024000154E230CB8FBFEF71FFA85FC0EFB178832
:1002500043EA084307FB0CF1994209D9EB1807F16F
:10026000FF3080F01B81994240F21881023F2B44FD
:100270005B1AA4B2B3FBFEF00EFB103344EA034456
:1002800000FB0CFCA44509D92C1900F1FF3380F0C8
:100290000781A44540F2048102382C4440EA07401B
:1002A000A4EB0C0400271EB1D4400023C6E9004390
:1002B0003946BDE8F0878B4209D9002E00F0EB806B
:1002C0000027C6E9000138463946BDE8F087B3FA91
:1002D00083F7002F47D18B4202D3824200F2FA808B
:1002E000841A61EB030301209846002EE0D0C6E992
:1002F0000048DDE702B9FFDEB2FA82F2002A40F0E0
:100300008F80491B4FEA154E1FFA85F80127B1FB74
:10031000FEFC230C0EFB1C1143EA014308FB0CF10D
:10032000994207D9EB180CF1FF3002D2994200F242
:10033000CD808446591AA3B2B1FBFEF00EFB101417
:1003400043EA044408FB00F8A04507D92C1900F142
:10035000FF3302D2A04500F2B6801846A4EB080491
:1003600040EA0C409FE7C7F1200CBB4022FA0CFE8C
:100370004EEA030E01FA07F420FA0CF521FA0CF309
:100380004FEA1E482543B3FBF8F92C0C08FB193340
:100390001FFA8EFA44EA034309FB0AF49C4202FA6C
:1003A00007F200FA07F10BD91EEB030309F1FF3046
:1003B00080F087809C4240F28480A9F10209734456
:1003C0001B1BADB2B3FBF8F008FB103345EA034446
:1003D00000FB0AFAA24508D91EEB040400F1FF3322
:1003E0006BD2A24569D90238744440EA0940A0FBA7
:1003F0000289A4EB0A044C45C2464B4654D351D063
:10040000002E69D0B1EB0A0564EB030404FA0CFC7E
:10041000FD40FC404CEA0505C6E90054002747E7CB
:10042000C2F1200320FA03F7954001FA02F021FA05
:1004300003F34FEA154E3843010CB3FBFEF71FFAE6
:1004400085F80EFB173341EA034107FB08F38B42A3
:1004500004FA02F407D9691807F1FF3C2FD28B4246
:100460002DD9023F2944CB1A81B2B3FBFEF00EFB1B
:10047000103341EA034100FB08F38B4207D96918A6
:1004800000F1FF3C17D28B4215D902382944C91A12
:1004900040EA07473BE73746304609E70746E7E6C5
:1004A0001846FBE64145ABD2B8EB020A69EB0E02F7
:1004B00001381346A4E76046E9E7184695E7674622
:1004C000D1E781467CE702382C4447E7ACF1020CC7
:1004D0002B442FE7384608E73746E9E6704700BF68
:1004E00001F0FF01102A2BDB10F0070F08D010F8E5
:1004F000013B013A8B422DD010F0070F42B3F6D1E9
:10050000F0B441EA012141EA014122F007047FF001
:1005100000070023F0E80256083C85EA010586EA58
:10052000010685FA47F5A3FA87F586FA47F6A5FA94
:1005300087F68EB9EED1F0BC01F0FF0102F00702A0
:1005400032B110F8013B013A83EA010313B1F8D14B
:100550000020704701387047002D06BF354603382C
:10056000073815F0010F07D1013015F4807F02BF65
:10057000013015F4C03F0130F0BC0138704700BFB6
:1005800008B54FF0FF330A460146024801F034FC3B
:1005900008BD00BFB00000200522002304E005498B
:1005A000895C0B44DBB201320B2AF8D9014A137380
:1005B000704700BFA0000020014B9871704700BF3A
:1005C000A0000020014BD871704700BFA0000020A0
:1005D000014B5871704700BFA00000200278024B09
:1005E0009A724278DA727047A000002008B5FFF7CF
:1005F000D3FF0E210148FFF7C3FF08BDA000002074
:1006000010B483B0144B1B680193002300E0013346
:10061000032B0BDC02AA1A4412F8041CC25C9142A0
:10062000F5D10E490A7801320A70F0E70B4B1B78BE
:10063000042B0ED003B05DF8044B70471A1FC45C46
:1006400007498C5401330C2BF8DD044B00221A703F
:10065000F0E70423F7E700BFA42B00088C0000207C
:10066000F800002082B0002100910B4B1A6B42F081
:1006700080021A631A6B02F080020092009A0191C4
:100680001A6B42F001021A631B6B03F00103019322
:10069000019B02B0704700BF0038024008B5024815
:1006A00001F0A0FC08BD00BF880100200268074BD4
:1006B0009A4200D0704710B5054C2046FFF7A0FFC6
:1006C0000D222146034801F0E0FD10BD004400402A
:1006D000580100208801002072B6FEE708B50A48DC
:1006E0000A4B03604FF4E133436000238360C3602F
:1006F00003610C2242618361C36101F04EFB00B9CA
:1007000008BDFFF7E9FF00BF88010020004400405A
:1007100008B50A480A4B03604FF4165343600023A0
:100720008360C36003610C2242618361C36101F095
:1007300034FB00B908BDFFF7CFFF00BF1401002054
:100740000010014000B587B000230193029303938A
:100750000493059300931C481C4A026043607F2267
:100760008260FF22C26003614361836101F02FF860
:1007700018BB00238DF804308DF805308DF8063055
:1007800004930593012201A90F4801F08DF8B0B937
:1007900003238DF8003008238DF8013010238DF8E5
:1007A000023022238DF8033001226946064801F009
:1007B000FAF830B907B05DF804FBFFF78DFFFFF7DB
:1007C0008BFFFFF789FF00BF680100200028004071
:1007D00000B59BB0302200210EA801F0D2FD00230D
:1007E00009930A930B930C930D930393049305932E
:1007F00006930793089301931E4A116C41F08051B0
:100800001164126C02F080520192019A02931A4A0A
:10081000116841F440411160126802F440420292B2
:10082000029A0A220E920122119210211291139221
:1008300014930EA800F0B6FBB0B90F230993002162
:100840000A910B910C910D9109A800F0FBFD68B97C
:10085000022303934FF40073079303A800F0C8FE2C
:1008600030B91BB05DF804FBFFF736FFFFF734FF2C
:10087000FFF732FF003802400070004030B597B0FB
:1008800000F0B0F9FFF7A4FFFFF7ECFEFFF726FF3B
:10089000FFF73EFFFFF756FF11AC324D0FCD0FC4EF
:1008A0002B68236018238DF80C3032238DF80D301F
:1008B000002203A92C4800F0F7FF0D222B492C48F9
:1008C00001F0E3FC40E00134042C1DDC16AB03EB2B
:1008D000840313F8142C9DF80C309A42F3D116AB14
:1008E00003EB840313F8132C9DF80D309A42EAD1E0
:1008F0009DF80E30002BE6D116AB03EB840313F802
:10090000110C00F045F9DEE71420FFF755FE1E201C
:10091000FFF758FE0120FFF75BFE40F65910FFF786
:100920005DFEFFF763FE9DF823209DF821309DF8C2
:100930002210009102F5FA620E4909A801F02AFD81
:100940004FF47A7000F07AF9074C002203A9204690
:1009500001F09FF8002208A9204601F0C5F8002404
:10096000B2E700BFA82B0008680100205801002052
:1009700088010020D42B000882B0002100910B4B8D
:100980005A6C42F480425A645A6C02F480420092DB
:10099000009A01911A6C42F080521A641B6C03F0A9
:1009A00080530193019B02B0704700BF00380240A2
:1009B0000268044B9A4200D07047034B01221A6030
:1009C000FAE700BF002800403C0E4742F0B58BB06C
:1009D0000023059306930793089309930368324A0B
:1009E000934204D0314A934225D00BB0F0BD002190
:1009F00001912F4B5A6C42F010025A645A6C02F06B
:100A000010020192019A02911A6B42F001021A63DC
:100A10001B6B03F001030293029B4FF4C063059329
:100A200002230693032308930723099305A921486A
:100A300000F0E0F9D9E7002403941D4B1A6C42F44E
:100A400000321A641A6C02F400320392039A04947E
:100A50001A6B42F001021A631B6B03F0010304934B
:100A6000049B042305930227069701230793089309
:100A7000072609960F4D05A9284600F0BBF9082363
:100A800005930697079403230893099605A928461A
:100A900000F0B0F922462146262000F0F5F8262085
:100AA00000F026F9A1E700BF00100140004400401B
:100AB0000038024000000240FEE7FEE7FEE7FEE7E6
:100AC000FEE770477047704708B500F0A5F808BD0D
:100AD00008B503460B4A126842B10A4A106803443B
:100AE0006A46934206D8074A136008BD054A06497C
:100AF0001160F2E701F010FC0C2303604FF0FF30AF
:100B0000F3E700BF90000020F0010020034AD2F874
:100B1000883043F47003C2F88830704700ED00E07D
:100B20000B0A0370417070470122002303E0815CCF
:100B30000B449BB20132062AF9DD584280B270475D
:100B400010B5044C2046FFF7EFFF0146E01DFFF70C
:100B5000E7FF10BDD801002008B54FF0FF330A228F
:100B60000249034801F048F908BD00BFD801002040
:100B7000B000002008B5054BD870581DFFF7D0FF16
:100B8000FFF7DEFFFFF7E8FF08BD00BFD801002038
:100B900008B501460320FFF7EDFF08BD10B5044678
:100BA0000E4B18784FF47A73B3FBF0F30C4A1068CD
:100BB000B0FBF3F000F0AAF868B90F2C01D90120BE
:100BC0000AE0002221464FF0FF3000F05DF8034BB1
:100BD0005C60002000E0012010BD00BF0400002088
:100BE0000000002008B50B4B1A6842F400721A602E
:100BF0001A6842F480621A601A6842F480721A60BD
:100C0000032000F02FF80020FFF7C8FFFFF7B4FE25
:100C1000002008BD003C0240034A1168034B1B78CA
:100C20000B441360704700BFE40100200400002063
:100C3000014B1868704700BFE401002038B5044636
:100C4000FFF7F6FF0546B4F1FF3F02D0044B1B78D7
:100C50001C44FFF7EDFF401BA042FAD338BD00BF94
:100C600004000020074AD36823F4E0631B041B0C34
:100C7000000200F4E060184340F0BF6040F4003030
:100C8000D060704700ED00E030B4174BDB68C3F371
:100C90000223C3F10704042C28BF04241D1D062DC4
:100CA00018D9033B4FF0FF3505FA04F421EA04019B
:100CB000994005FA03F322EA0303194300280BDBEA
:100CC0000901C9B200F1604000F5614080F80013ED
:100CD00030BC70470023E5E700F00F000901C9B2FE
:100CE000024B1954F4E700BF00ED00E014ED00E002
:100CF000002807DB00F01F02400901239340024A4D
:100D000042F82030704700BF00E100E00138B0F148
:100D1000807F0AD2064B5860064AF02182F82310E1
:100D20000020986007221A6070470120704700BFBA
:100D300010E000E000ED00E070B50446866DFFF7BE
:100D400077FF94F83530DBB2022B06D08023636541
:100D5000002384F83430012070BD054622681368F2
:100D600023F0160313602268536923F08003536154
:100D7000236CE3B12268136823F008031360226830
:100D8000136823F00103136023681B6813F0010F3D
:100D900011D0FFF74DFF401B0528F5D920236365CF
:100DA000032084F83500002384F83430D4E7A36CA2
:100DB000002BDFD1E3E7E26D3F239340B3600123D3
:100DC00084F83530002084F83400C5E790F83530D9
:100DD000DBB2022B03D0802343650120704705233B
:100DE00080F835300268136823F001031360002097
:100DF0007047000000230F2B00F2CA80F0B482B0CD
:100E00005DE086685F000324BC4026EA0406CC68E7
:100E1000BC4034438460466826EA02064C68C4F34A
:100E200000129A403243426056E0DC08083450F821
:100E3000247003F0070296000F22B24027EA02074F
:100E40000A69B2403A4340F8242059E0042200E005
:100E50000022B2403A4302344E4E46F824204E4A15
:100E60001468EA4302EA04064F6817F4803F01D091
:100E700045EA0406484C2660646802EA04064F68A6
:100E800017F4003F01D045EA0406434C6660A468AD
:100E900002EA04064F6817F4801F01D045EA0406F1
:100EA0003D4CA660E46822404E6816F4001F01D055
:100EB00045EA0402384CE26001330F2B65D8012269
:100EC0009A400C6804EA0205AA42F5D14C6804F085
:100ED0000304013C012C94D94A6802F00302032A5E
:100EE00009D0C4685E000322B24024EA02048A6882
:100EF000B2402243C2604A6802F00302022A94D040
:100F000004685E000322B24024EA02044A6802F048
:100F10000302B240224302604A6812F4403FCBD041
:100F2000002201921D4A546C44F480445464526C73
:100F300002F480420192019A9C08A61C154A52F8BC
:100F4000267003F0030296000F22B24027EA020740
:100F5000134A90423FF47CAF02F5806290420ED07B
:100F600002F5806290420CD002F5806290420AD075
:100F700002F5806290423FF469AF072269E70122DF
:100F800067E7022265E7032263E702B0F0BC70471F
:100F9000704700BF00380140003C0140003802406B
:100FA00000000240002800F0E98170B582B00446DC
:100FB000036813F0010F3BD0A74B9B6803F00C03B1
:100FC000042B2CD0A44B9B6803F00C03082B21D0DE
:100FD0006368B3F5803F4FD0B3F5A02F52D09E4B3E
:100FE0001A6822F480321A601A6822F480221A6089
:100FF0006368002B50D0FFF71BFE0546964B1B681D
:1010000013F4003F14D1FFF713FE401B6428F5D9F9
:101010000320B8E1904B5B6813F4800FD8D08E4B5F
:101020001B6813F4003F03D06368002B00F0A88115
:10103000236813F0020F55D0874B9B6813F00C0FF9
:101040003ED0854B9B6803F00C03082B33D0E3683C
:10105000002B68D0814B01221A60FFF7E9FD05469D
:101060007D4B1B6813F0020F54D1FFF7E1FD401BCD
:101070000228F5D9032086E1774A136843F48033C8
:101080001360B5E7744B1A6842F480221A601A683C
:1010900042F480321A60ABE7FFF7CAFD05466E4B9B
:1010A0001B6813F4003FC3D0FFF7C2FD401B642848
:1010B000F5D9032067E1684B5B6813F4800FC6D154
:1010C000654B1B6813F0020F04D0E368012B01D0BD
:1010D000012058E1604A136823F0F803216943EACC
:1010E000C1031360236813F0080F40D0636963B332
:1010F0005B4B01221A60FFF79BFD0546564B5B6F69
:1011000013F0020F33D1FFF793FD401B0228F5D9EE
:10111000032038E1504A136823F0F803216943EAB9
:10112000C1031360DEE74D4B00221A60FFF780FD1C
:101130000546494B1B6813F0020FD3D0FFF778FD2B
:10114000401B0228F5D903201DE1454B00221A60FF
:10115000FFF76EFD0546404B5B6F13F0020F06D0A4
:10116000FFF766FD401B0228F5D903200BE1236839
:1011700013F0040F79D0384B1B6C13F0805F33D120
:1011800000230193344B1A6C42F080521A641B6C9A
:1011900003F080530193019B0125324B1B6813F42C
:1011A000807F23D0A368012B34D0052B38D02A4B65
:1011B0001A6F22F001021A671A6F22F004021A67EE
:1011C000A368002B36D0FFF733FD0646224B1B6F7A
:1011D00013F0020F48D1FFF72BFD801B41F288333B
:1011E0009842F3D90320CEE00025D6E71D4A1368C4
:1011F00043F480731360FFF71BFD0646194B1B6811
:1012000013F4807FCED1FFF713FD801B0228F5D9A0
:101210000320B8E0104A136F43F001031367CFE7D0
:101220000D4B1A6F42F004021A671A6F42F0010266
:101230001A67C5E7FFF7FCFC0646074B1B6F13F068
:10124000020F11D0FFF7F4FC801B41F28833984263
:10125000F3D9032097E000BF003802400000474266
:10126000800E474200700040EDB9A369002B00F0EA
:101270008980484A926802F00C02082A51D0022B59
:1012800017D0454B00221A60FFF7D2FC0446414BB1
:101290001B6813F0007F42D0FFF7CAFC001B022836
:1012A000F5D903206FE03B4A136C23F0805313649D
:1012B000DBE7394B00221A60FFF7BAFC0546354BD5
:1012C0001B6813F0007F06D0FFF7B2FC401B02281A
:1012D000F5D9032057E0E369226A1343626A43EABF
:1012E0008213A26A5208013A43EA0243E26A43EADD
:1012F0000263284A5360284B01221A60FFF798FCCA
:101300000446244B1B6813F0007F06D1FFF790FCC6
:10131000001B0228F5D9032035E0002033E000202F
:1013200031E0012B31D01B4B5B6803F48001E26993
:10133000914201D0012026E003F03F02216A8A4257
:1013400001D001201FE0616A47F6C0721A40B2EB7B
:10135000811F01D0012016E003F44031A26A520837
:10136000013AB1EB024F01D001200CE003F07063B1
:10137000E26AB3EB026F0AD0012004E0012070475B
:10138000012000E0002002B070BD0120FBE700203A
:10139000F9E700BF0038024060004742264B9B68D7
:1013A00003F00C03042B44D0082B01D023487047D2
:1013B0002DE9F04B204B5A6802F03F025B6813F4B2
:1013C000800F13D01C4B5968C1F3881100231C48AF
:1013D000A1FB0001FEF704FF174B5B68C3F3014359
:1013E00001335B00B0FBF3F0BDE8F08B124B5B68A0
:1013F000C3F388131E4600275C010025E41A65EB41
:101400000705A90141EA9461A001001B61EB0501F8
:10141000CB0043EA5073C400A01943EB07018B02D1
:1014200043EA90538402204619460023FEF7D8FE73
:10143000D2E70348704700BF003802400024F400A0
:1014400040787D01002800F09E8070B50446504B26
:101450001B6803F007038B4209D2CBB24C4A1370CE
:10146000136803F007038B4201D0012070BD23688D
:1014700013F0020F17D013F0040F04D0454A9368FD
:1014800043F4E0539360236813F0080F04D0414AFB
:10149000936843F4604393603E4A936823F0F003FB
:1014A000A068034393600D46236813F0010F32D008
:1014B0006368012B21D09A1E012A25D9354A12686A
:1014C00012F0020F61D033498A6822F003021343FD
:1014D0008B60FFF7ADFB06462E4B9B6803F00C03B9
:1014E0006268B3EB820F16D0FFF7A2FB801B41F2BC
:1014F00088339842F0D90320B8E7264A126812F4DC
:10150000003FE0D10120B1E7224A126812F0007FCB
:10151000D9D10120AAE71E4B1B6803F00703AB4299
:1015200009D9EAB21A4B1A701B6803F00703AB42E1
:1015300001D001209AE7236813F0040F06D0154A62
:10154000936823F4E053E1680B439360236813F03E
:10155000080F07D00F4A936823F46043216943EAD8
:10156000C1039360FFF71AFF0A4B9B68C3F3031391
:10157000094AD35CD840094B1860094B1868FFF73B
:101580000DFB002072E70120704701206EE700BFCD
:10159000003C024000380240BC2B00080000002044
:1015A00008000020014B1868704700BF00000020B1
:1015B00008B5FFF7F7FF044B9B68C3F38223034A88
:1015C000D35CD84008BD00BF00380240CC2B0008D7
:1015D00008B5FFF7E7FF044B9B68C3F34233034AA8
:1015E000D35CD84008BD00BF00380240CC2B0008B7
:1015F00030B583B00446036813F0050F0ED123689D
:1016000013F0020F38D1236813F0080F00F09B800D
:10161000227D4E4B1A60002003B030BD4C4B00229F
:101620001A60FFF705FB05464A4B1B6813F0006F75
:1016300006D0FFF7FDFA401B0228F5D90320EBE79F
:101640006368A26843EA8213E26843EA0273414A8C
:10165000C2F884303E4B01221A60FFF7E9FA0546D2
:101660003C4B1B6813F0006FC9D1FFF7E1FA401B38
:101670000228F5D90320CFE700230193354B1A6CDC
:1016800042F080521A641B6C03F080530193019B5B
:10169000314A136843F480731360FFF7C9FA0546B3
:1016A0002D4B1B6813F4807F06D1FFF7C1FA401B56
:1016B0000228F5D90320AFE7264B1B6F13F44073C4
:1016C00012D0226902F440729A420DD0214B1A6F57
:1016D00022F44072214901200860002008601A6746
:1016E0001B6F13F0010F12D1236903F44072B2F59E
:1016F000407F1DD0174A936823F4F813936015496F
:101700000B6F2269C2F30B0213430B677BE7FFF7F2
:101710008FFA05460F4B1B6F13F0020FE4D1FFF752
:1017200087FA401B41F288339842F3D9032073E7CC
:1017300008498A6822F4F81223F0704323F44073B6
:1017400013438B60DBE7002066E700BFE0114742F0
:10175000680047420038024000700040400E474297
:1017600038B504460268D36823F0A003D360FFF7BE
:101770005FFA05462368DB6813F0200F07D1FFF7F7
:1017800057FA401BB0F57A7FF4D9032000E000201F
:1017900038BD38B50368DA6812F0400F01D0002078
:1017A00038BD04464FF0FF32DA60FFF741FA0546D4
:1017B0002368DB6813F0400F07D1FFF739FA401BAD
:1017C000B0F57A7FF4D90320EAE70020E8E738B5DE
:1017D00000285CD00446437F002B40D0022363776F
:1017E0002368CA225A62236853225A622046FFF7AE
:1017F000D0FF0546002836D12268936823F4E00321
:1018000023F04003936021688A686368206903437A
:101810006069034313438B602368E2681A6122689E
:101820001369A16843EA014313612268D36823F076
:101830008003D36023689B6813F0200F1BD02268BD
:10184000136C23F4802313642268136CA1690B4387
:1018500013642368FF225A620123637709E0037748
:10186000FFF7A6F8BAE72368FF225A6204236377DA
:101870000125284638BD2046FFF772FF0028DED03C
:101880002368FF225A62042363770125F1E70125CB
:10189000EFE7002302E001330A38C0B20928FAD882
:1018A0001B01DBB218437047F8B5037F012B78D0DA
:1018B0000D4604460123037702234377002A46D1CD
:1018C00003689B6813F0400F01D10023CB70287888
:1018D000FFF7DFFF06046878FFF7DBFF46EA002624
:1018E000A878FFF7D6FF3043EE7840EA0646236833
:1018F000CA225A62236853225A622046FFF749FFE0
:101900000746002835D1236806F07F3626F0FE46CC
:101910001E602268936823F48023936021688B689B
:10192000EA682869024313438B602268D36823F076
:101930008003D36023689B6813F0200F23D02368B3
:10194000FF225A62012363770023237719E003689B
:101950009B6813F0400F01D10023CB702B7868787F
:10196000000240EA0340AB781843EE7840EA0646AE
:10197000BDE72368FF225A6204236377002323779D
:1019800001273846F8BD2046FFF7EAFE0028D6D0EA
:101990002368FF225A6204236377002323770127F9
:1019A000EFE70227EDE770B5037F012B66D0012337
:1019B0000377022343773AB94B7813F0100F03D023
:1019C00003F0EF030A334B700E460446002A32D16F
:1019D000C878FFF75EFF05047078FFF75AFF45EA05
:1019E0000025B078FFF755FF2843357840EA4535A4
:1019F0002368CA225A62236853225A622046FFF79C
:101A0000C8FE064610BB236825F07F4525F0C005BB
:101A10005D602268D36823F08003D36023689B68ED
:101A200013F0200F1CD02368FF225A620123637732
:101A30000023237712E0CD784878000240EA054081
:101A40008D7828430D7840EA4535D1E72368FF2299
:101A50005A6204236377002323770126304670BD42
:101A60002046FFF77DFE0028DDD02368FF225A6262
:101A700004236377002323770126EFE70226EDE7AF
:101A8000030903EB83035A0000F00F001044C0B2B7
:101A9000704770B503689B6A4B6003681B69C3F3AA
:101AA0000E038B6003681B6803F07F3323F0FE4353
:101AB0001D0C05F03F000870C3F306264E7003F0BE
:101AC0007F048C7005F04005CD705AB90D46FFF7C4
:101AD000D7FF28703046FFF7D3FF68702046FFF726
:101AE000CFFFA870002070BD70B503685B6823F05D
:101AF0007F4323F0C003180CC870C3F304264E7054
:101B000003F03F058D70C3F342330B705AB90C4696
:101B1000FFF7B6FFE0703046FFF7B2FF607028466F
:101B2000FFF7AEFFA070002070BD026802F10C0349
:101B300053E8003F23F490730C3242E8003100294F
:101B4000F3D1026802F1140353E8003F23F00103CC
:101B5000143242E800310029F3D1036B012B05D088
:101B6000202380F83E30002303637047026802F1AF
:101B70000C0353E8003F23F010030C3242E800311D
:101B80000029F3D1ECE790F83D30DBB2212B27D1CF
:101B90008368B3F5805F16D0036A5A1C02621A7814
:101BA00003685A60C38C013B9BB2C384D3B90268FB
:101BB000D36823F08003D3600268D36843F0400306
:101BC000D360002070470369002BE5D1036A1B88AE
:101BD0000268C3F308035360036A02330362E1E758
:101BE00002207047002070472DE9F04B0446026840
:101BF000136923F44053C1680B431361836802697E
:101C0000134342691343C2691A430168CB6823F442
:101C1000164323F00C031343CB600268536923F48B
:101C2000407381690B43536103683A4A934206D07B
:101C300002F58062934202D0FFF7BAFC01E0FFF7A1
:101C4000C7FCE369B3F5004F30D04FF00009061828
:101C500049EB090716EB000B47EB090C4FEACC03E5
:101C600043EA5B734FEACB0293469C4663689A0053
:101C70009B0F10EB0B0049EB0C01FEF7B1FA264D60
:101C8000A5FB00325109642202FB11021301323319
:101C9000A5FB03235B0903F0F00202EB011203F042
:101CA0000F03216813448B60BDE8F08B83464FF02F
:101CB000000C06184CEB0C0716EB000847EB0C0960
:101CC0004FEAC90343EA58734FEAC802904699465F
:101CD00062680021921841EB01031BEB08004CEBFA
:101CE0000901FEF77DFA0C4DA5FB00325109642273
:101CF00002FB1102D3003233A5FB03235B095A0018
:101D000002F4F87202EB011203F007032168134496
:101D10008B60C9E7001001401F85EB512DE9F041B0
:101D200004460F4616469846069D23681B6837EA08
:101D300003030CBF01230023B3422BD1B5F1FF3FB6
:101D4000F3D02DB1FEF774FFA0EB0800A842ECD948
:101D5000226802F10C0353E8003F23F4D0730C32E5
:101D600042E800310029F3D1226802F1140353E85C
:101D7000003F23F00103143242E800310029F3D17F
:101D8000202384F83D3084F83E30002384F83C3032
:101D9000032000E00020BDE8F08158B310B50446F0
:101DA00090F83D300BB3242384F83D302268D3688B
:101DB00023F40053D3602046FFF716FF226813690F
:101DC00023F4904313612268536923F02A0353617B
:101DD0002268D36843F40053D3600020206420239A
:101DE00084F83D3084F83E3010BD80F83C30FEF77A
:101DF000EDFDD8E7012070472DE9F04182B01E4685
:101E000090F83D30DBB2202B54D104460D4690466D
:101E1000002954D0002A54D090F83C30012B52D0E5
:101E2000012380F83C3000230364212380F83D30F7
:101E3000FEF7FEFE0746A4F82480A4F82680A368D7
:101E4000B3F5805F05D04FF00008002384F83C30E4
:101E500011E0236913B14FF00008F6E7A84600250A
:101E6000F3E738F8023B2268C3F308035360E38CBE
:101E7000013B9BB2E384E38C9BB273B100963B467B
:101E8000002280212046FFF749FFF0B9002DE8D05D
:101E900015F8012B23685A60E9E700963B460022BB
:101EA00040212046FFF73AFF034680B9202284F8FC
:101EB0003D2000E00223184602B0BDE8F081012376
:101EC000F9E70123F7E70223F5E70323F3E7032309
:101ED000F1E7704708B50168CB6823F04003CB6099
:101EE000202380F83D30FFF7F4FF002008BD704745
:101EF00008B5806B0023C385C384FFF7F8FF08BDD6
:101F0000704790F83E30DBB2222B67D18368B3F57F
:101F1000805F4CD0826AB3F5805F04D0002B53D130
:101F20000369002B50D103685B681370836A013327
:101F30008362C38D013B9BB2C385002B50D100B59A
:101F400083B00268D36823F02003D3600268D368AB
:101F500023F48073D3600268536923F00103536153
:101F6000202380F83E30036B012B33D10023036321
:101F7000026802F10C0353E8003F23F010030C3217
:101F800042E800310029F3D103681A6812F0100FFB
:101F900006D0002201921A6801925B680193019BAE
:101FA000818DFFF7ADFF002003B05DF804FB0269EF
:101FB000002AAFD1826A03685B68C3F30803138009
:101FC000836A02338362B4E703685B6803F07F03CC
:101FD0001370ABE7FEF76AFB0020E5E702207047CD
:101FE0000020704730B583B0044602681368D0689B
:101FF000516913F00F0505D113F0200F02D010F036
:10200000200F5ED1002D72D011F0010102D110F429
:10201000907F6CD013F0010F06D010F4807F03D0B6
:10202000226C42F00102226413F0040F04D019B1B3
:10203000226C42F00202226413F0020F04D019B1A4
:10204000226C42F00402226413F0080F07D010F053
:10205000200F00D119B1226C42F008022264226CD8
:10206000002A55D013F0200F02D010F0200F2CD1F1
:1020700023685B6903F04003226C12F0080F00D163
:102080007BB32046FFF751FD23685B6913F0400FD7
:1020900023D0226802F1140353E8003F23F04003E9
:1020A000143242E800310029F3D1A36B8BB1684AA6
:1020B0001A65A06BFEF78AFE50B3A06B036D9847BC
:1020C00026E02046FFF71DFF22E02046FFF719FF1C
:1020D000CEE72046FFF70BFF1AE02046FFF707FF89
:1020E00016E02046FFF703FF0023236410E0216B76
:1020F00001290FD013F0800F03D010F0800F40F0B3
:102100009F8013F0400F03D010F0400F40F09C80F0
:1021100003B030BD13F0100FECD010F0100FE9D069
:10212000002301931368019353680193019B536942
:1021300013F0400F4DD0A26B13685B689BB2002B6D
:10214000E6D0A18D9942E3D9E385D369B3F5807FC9
:1021500037D0226802F10C0353E8003F23F4807368
:102160000C3242E800310029F3D1226802F1140355
:1021700053E8003F23F00103143242E80031002904
:10218000F3D1226802F1140353E8003F23F0400327
:10219000143242E800310029F3D1202384F83E3084
:1021A00000232363226802F10C0353E8003F23F06D
:1021B00010030C3242E800310029F3D1A06BFEF786
:1021C000BBFDA18DE38DC91A89B22046FFF798FEA9
:1021D0009EE7A18DE38DC91A89B2E38D9BB2002BD6
:1021E00096D0002994D0226802F10C0353E8003FF6
:1021F00023F490730C3242E800300028F3D12268B7
:1022000002F1140353E8003F23F00103143242E8C3
:1022100000300028F3D1202384F83E3000232363CC
:10222000226802F10C0353E8003F23F010030C3244
:1022300042E800300028F3D12046FFF761FE67E74F
:102240002046FFF7A0FC63E72046FFF743FE5FE769
:10225000F11E0008034681628285C2850020186451
:10226000222283F83E2083F83C001968CA6842F4B1
:102270008072CA6019684A6942F001024A611A68AC
:10228000D36843F02003D360704708B590F83E3020
:10229000DBB2202B0DD171B17AB190F83C30012B1B
:1022A0000DD0012380F83C3000230363FFF7D2FFF9
:1022B00000E0022008BD0120FCE70120FAE702202F
:1022C000F8E70000DFF834D00D480E490E4A00232D
:1022D00002E0D458C4500433C4188C42F9D30B4ADA
:1022E0000B4C002301E013600432A242FBD3FEF743
:1022F0000DFC00F017F8FEF7C1FA7047000002204D
:1023000000000020700000202C2C0008700000202D
:10231000EC010020FEE70000014B1868704700BF89
:102320000C00002070B50D4E0D4CA41BA410002510
:10233000A54209D10B4E0C4C00F028FCA41BA410A4
:102340000025A54205D170BD56F8253098470135C6
:10235000EEE756F8253098470135F2E7242C0008BF
:10236000242C0008242C0008282C000810B5431E3B
:102370000A44914200D110BD11F8014B03F8014FFE
:10238000F7E702440346934200D1704703F8011B6C
:10239000F9E700000EB400B59CB01DAB02900690AA
:1023A0006FF00041094807910491094953F8042B43
:1023B00005910068019302A900F066F8029B0022D3
:1023C0001A701CB05DF804EB03B070470C000020DD
:1023D0000802FFFF2DE9F0478E689E4282460C46B8
:1023E0009046994637D88A8912F4906F31D0256883
:1023F00009696F1A6569022305EB450595FBF3F53D
:1024000009F101033B449D4238BF1D46530530D5B9
:10241000294600F021FB064650B90C23CAF80030CB
:10242000A38943F04003A3814FF0FF30BDE8F0875C
:102430003A462169FFF79AFFA38923F4906343F09A
:102440008003A381266165613E44ED1B2660A56083
:102450004E464E4500D94E4632464146206800F071
:1024600093FAA3689B1BA36023681E442660002088
:10247000DCE72A4600F04AFB06460028E2D1216943
:10248000504600F09BFAC8E72DE9F04F1D468B89B6
:102490001F069DB080460C4616460FD50B696BB9DA
:1024A000402100F0D9FA2060206128B90C23C8F837
:1024B00000304FF0FF30C8E04023636100230993F0
:1024C00020238DF8293030238DF82A3003954FF0E2
:1024D000010B37463D4615F8013B0BB1252B3ED18C
:1024E000B7EB060A0BD05346324621464046FFF76B
:1024F00071FF013000F0A480099B534409933B789D
:10250000002B00F09D8000234FF0FF32CDE9052322
:10251000049307938DF853301A932F46052217F82A
:10252000011B5048FDF7DCFF049BD0B9D90644BF1E
:1025300020228DF853201A0744BF2B228DF85320F8
:102540002A782A2A15D0079A2F4600200A253946CC
:1025500011F8013B303B092B4DD9B8B10FE02F46A4
:10256000B8E7404A801A0BFA00F0184304903D4641
:10257000D3E7039A111D12680391002A01DB079229
:1025800004E0524243F00203079204933B782E2B5F
:102590000CD17B782A2B33D1039B1A1D1B68039225
:1025A000002BB8BF4FF0FF33023705932E4D39781B
:1025B00003222846FDF794FF38B14023401B03FA5D
:1025C00000F0049B034301370493397827488DF8C2
:1025D000281006227E1CFDF783FF002838D0244BEC
:1025E00013BB039B073323F0070308330393099BB3
:1025F0004B4409936DE705FB023201200F46A6E725
:1026000000230137059319460A25384610F8012B97
:10261000303A092A03D9002BC8D00591C6E705FB3B
:10262000012101230746F0E703AB00932246114B3B
:1026300004A94046AFF30080B0F1FF3F8146D6D1F8
:10264000A3895B063FF535AF09981DB0BDE8F08F53
:1026500003AB00932246074B04A9404600F082F8E2
:10266000EAE700BFE82B0008EE2B0008F22B000879
:1026700000000000D52300082DE9F04791461F46D1
:102680008A680B69DDF820809342B8BF1346C9F809
:10269000003091F8432006460C4612B10133C9F8C8
:1026A00000302368990642BFD9F800300233C9F8D8
:1026B0000030256815F0060507D104F1190AE36812
:1026C000D9F800209B1AAB4228DC94F843302268EA
:1026D000003318BF012392062DD404F1430239467A
:1026E0003046C047013020D02368E568D9F8002083
:1026F00003F00603042B08BFAD1AA36822690CBFC0
:1027000025EAE57500259342C4BF9B1AED184FF0EA
:1027100000091A344D451AD1002008E00123524621
:1027200039463046C047013003D14FF0FF30BDE895
:10273000F0870135C3E7E1185A1C302081F84300C7
:10274000224494F8451082F843100233C5E7012370
:10275000224639463046C0470130E6D009F101092A
:10276000D8E700002DE9F04301F1430C0C46097E47
:1027700085B06E291746064698460C9A00F0B3803D
:1027800022D8632936D00AD8002900F0B980582908
:1027900000F0838004F1420584F8421032E064299D
:1027A00001D06929F6D120681368050603F10401F8
:1027B0002AD51B681160002B03DA2D225B4284F8B6
:1027C00043206F480A2239E0732900F09D8008D821
:1027D0006F2920D07029DDD1236843F020032360C6
:1027E00003E0752917D07829D4D1782384F84530AF
:1027F000644855E01368191D1B68116004F1420517
:1028000084F8423001238CE01B68116010F0400F07
:1028100018BF1BB2CFE713682568181D1060280683
:1028200001D51B6802E06806FBD51B8854486F2958
:1028300014BF0A220822002184F843106568A560AD
:10284000002DC0F29580216821F004012160002B49
:102850003DD1002D40F08E806546082A0BD12368BB
:10286000DB0708D5236962689A42DEBF302305F88A
:10287000013C05F1FF35ACEB05032361CDF8008089
:102880003B4603AA21463046FFF7F6FE01304DD104
:102890004FF0FF3005B0BDE8F083394884F84510AB
:1028A000136821681D1D1B6815600A060BD5CA0731
:1028B00044BF41F0200121601BB9226822F02002B0
:1028C00022601022B7E74D0648BF9BB2EFE765468E
:1028D000B3FBF2F102FB1133C35C05F8013D0B467B
:1028E0000029F5D1B9E7136825686169181D1060E2
:1028F00028061B6801D5196002E06A06FBD519801D
:10290000002323616546B9E71368191D11601D682E
:10291000626800212846FDF7E3FD08B1401B6060B6
:1029200063682361002384F84330A7E723692A46BC
:1029300039463046C0470130AAD023689B0713D4DC
:10294000E068039B9842B8BF1846A3E701234A46B4
:1029500039463046C04701309AD00135E368039AC2
:102960009B1AAB42F2DCEBE7002504F11909F5E70D
:10297000002BACD1037884F8423004F142056CE7B7
:10298000F92B00080A2C0008884210B501EB02035D
:1029900007D8421E99420AD011F8014B02F8014FA4
:1029A000F8E78342F5D98118D21AD34200D110BD7D
:1029B00013F8014D01F8014DF7E7000038B5054661
:1029C000002945D051F8043C0C1F002BB8BFE41877
:1029D00000F0D2F81F4A1368104633B963601460E0
:1029E0002846BDE8384000F0C8B8A3420CD9216899
:1029F0006218934204BF1A685B68636004BF521890
:102A000022600460ECE713465A680AB1A242FAD980
:102A100019685818A0420BD1206801445818824206
:102A20001960DDD1106852685A6001441960D7E717
:102A300002D90C232B60D3E7206821188A4204BFF7
:102A400011685268626004BF091821605C60C7E7C2
:102A500038BD00BF9800002070B5CD1C25F00305DF
:102A600008350C2D38BF0C25002D064601DBA94288
:102A700003D90C233360002070BD00F07DF8214A9B
:102A80001468214691B9204C23681BB9304600F0E8
:102A900063F820602946304600F05EF8431C24D1DC
:102AA0000C233360304600F068F8E4E70B685B1BEA
:102AB00018D40B2B0FD90B60CD50CC18304600F03A
:102AC0005CF804F10B00231D20F00700C31AD3D0DB
:102AD0005A42E250D0E78C424B6816BF63601360E5
:102AE0000C46EBE70C464968CCE7C41C24F0030411
:102AF000A04205D0211A304600F02EF80130CFD088
:102B00002560DBE7980000209C000020F8B5074610
:102B100014460E4621B91146BDE8F840FFF79CBFA8
:102B200022B9FFF74BFF25462846F8BD00F026F8EE
:102B3000A0420FD221463846FFF78EFF05460028F7
:102B4000F2D031462246FFF711FC31463846FFF7F6
:102B500035FFE9E73546E7E738B5064C002305467B
:102B600008462360FDF7B4FF431C02D1236803B17C
:102B70002B6038BDE80100207047704751F8043CD5
:102B8000181F002BBCBF0B58C0187047F8B500BF0A
:102B9000F8BC08BC9E467047F8B500BFF8BC08BC3E
:042BA0009E46704796
:102BA40048454C4F17320001173400011735000116
:102BB4001736000117370001000000000000000074
:102BC40001020304060708090000000001020304CF
:102BD400253032642F253032642F253032640D0ABB
:102BE40000000000232D302B2000686C4C0065662B
:102BF400674546470030313233343536373839414A
:102C0400424344454600303132333435363738395F
:082C1400616263646566000063
:082C1C00F4D5FF7F0100000068
:042C2400C5010008DE
:042C2800A1010008FE
:102C2C000024F4000100000010000000100000203F
:102C3C000000000000000000000000000000000088
:102C4C000000000000000000000000000000000078
:102C5C000000000000000000000000000000000068
:102C6C000000000000000000000000000000000058
:102C7C000000000000000000000000000000000048
:102C8C000000000000000000000000000000000038
:04000005080022C508
:00000001FF
